{"abi":[{"type":"function","name":"combineStrings","inputs":[],"outputs":[{"name":"","type":"string","internalType":"string"}],"stateMutability":"pure"},{"type":"function","name":"decodeString","inputs":[],"outputs":[{"name":"","type":"string","internalType":"string"}],"stateMutability":"pure"},{"type":"function","name":"encodeNumber","inputs":[],"outputs":[{"name":"","type":"bytes","internalType":"bytes"}],"stateMutability":"pure"},{"type":"function","name":"encodeString","inputs":[],"outputs":[{"name":"","type":"bytes","internalType":"bytes"}],"stateMutability":"pure"},{"type":"function","name":"encodeStringBytes","inputs":[],"outputs":[{"name":"","type":"bytes","internalType":"bytes"}],"stateMutability":"pure"},{"type":"function","name":"encodeStringPacked","inputs":[],"outputs":[{"name":"","type":"bytes","internalType":"bytes"}],"stateMutability":"pure"},{"type":"function","name":"multiDecode","inputs":[],"outputs":[{"name":"","type":"string","internalType":"string"},{"name":"","type":"string","internalType":"string"}],"stateMutability":"pure"},{"type":"function","name":"multiDecodePacked","inputs":[],"outputs":[{"name":"","type":"string","internalType":"string"}],"stateMutability":"pure"},{"type":"function","name":"multiEncode","inputs":[],"outputs":[{"name":"","type":"bytes","internalType":"bytes"}],"stateMutability":"pure"},{"type":"function","name":"multiEncodePacked","inputs":[],"outputs":[{"name":"","type":"bytes","internalType":"bytes"}],"stateMutability":"pure"},{"type":"function","name":"multiStringCastPacked","inputs":[],"outputs":[{"name":"","type":"string","internalType":"string"}],"stateMutability":"pure"},{"type":"function","name":"withdraw","inputs":[{"name":"recentWinner","type":"address","internalType":"address"}],"outputs":[],"stateMutability":"nonpayable"}],"bytecode":{"object":"0x608060405234801561000f575f80fd5b50610bb68061001d5f395ff3fe608060405234801561000f575f80fd5b50600436106100b2575f3560e01c8063929b807e1161006f578063929b807e14610168578063a6dc49b814610186578063a77b0360146101a4578063b4748718146101c2578063c452d79b146101e0578063ed5df365146101ff576100b2565b8063114a7610146100b657806315889d1a146100d45780632085f4b9146100f2578063406ec9f21461011057806351cff8d91461012e57806360ee46c31461014a575b5f80fd5b6100be61021d565b6040516100cb9190610521565b60405180910390f35b6100dc610242565b6040516100e99190610593565b60405180910390f35b6100fa61026f565b6040516101079190610593565b60405180910390f35b610118610299565b6040516101259190610593565b60405180910390f35b6101486004803603810190610143919061061e565b6102db565b005b610152610387565b60405161015f9190610521565b60405180910390f35b61017061039b565b60405161017d9190610521565b60405180910390f35b61018e6103c2565b60405161019b9190610593565b60405180910390f35b6101ac6103ec565b6040516101b99190610521565b60405180910390f35b6101ca610413565b6040516101d79190610593565b60405180910390f35b6101e861043d565b6040516101f6929190610649565b60405180910390f35b61020761046d565b6040516102149190610593565b60405180910390f35b606060405160200161022e9061071c565b604051602081830303815290604052905090565b60605f60016040516020016102579190610789565b60405160208183030381529060405290508091505090565b60605f604051602001610281906107ec565b60405160208183030381529060405290508091505090565b60605f6040518060400160405280600b81526020017f736f6d6520737472696e6700000000000000000000000000000000000000000081525090508091505090565b5f8173ffffffffffffffffffffffffffffffffffffffff16476040516103009061082d565b5f6040518083038185875af1925050503d805f811461033a576040519150601f19603f3d011682016040523d82523d5f602084013e61033f565b606091505b5050905080610383576040517f08c379a000000000000000000000000000000000000000000000000000000000815260040161037a9061088b565b60405180910390fd5b5050565b60605f610392610413565b90508091505090565b60605f6103a6610413565b8060200190518101906103b991906109c7565b90508091505090565b60605f6040516020016103d490610a7a565b60405160208183030381529060405290508091505090565b60605f6103f761046d565b80602001905181019061040a91906109c7565b90508091505090565b60605f60405160200161042590610acd565b60405160208183030381529060405290508091505090565b6060805f8061044a6103c2565b80602001905181019061045d9190610aec565b9150915081819350935050509091565b60605f60405160200161047f90610b62565b60405160208183030381529060405290508091505090565b5f81519050919050565b5f82825260208201905092915050565b5f5b838110156104ce5780820151818401526020810190506104b3565b5f8484015250505050565b5f601f19601f8301169050919050565b5f6104f382610497565b6104fd81856104a1565b935061050d8185602086016104b1565b610516816104d9565b840191505092915050565b5f6020820190508181035f83015261053981846104e9565b905092915050565b5f81519050919050565b5f82825260208201905092915050565b5f61056582610541565b61056f818561054b565b935061057f8185602086016104b1565b610588816104d9565b840191505092915050565b5f6020820190508181035f8301526105ab818461055b565b905092915050565b5f604051905090565b5f80fd5b5f80fd5b5f73ffffffffffffffffffffffffffffffffffffffff82169050919050565b5f6105ed826105c4565b9050919050565b6105fd816105e3565b8114610607575f80fd5b50565b5f81359050610618816105f4565b92915050565b5f60208284031215610633576106326105bc565b5b5f6106408482850161060a565b91505092915050565b5f6040820190508181035f83015261066181856104e9565b9050818103602083015261067581846104e9565b90509392505050565b5f81905092915050565b7f4869204d6f6d21200000000000000000000000000000000000000000000000005f82015250565b5f6106bc60088361067e565b91506106c782610688565b600882019050919050565b7f4d69737320796f752e00000000000000000000000000000000000000000000005f82015250565b5f61070660098361067e565b9150610711826106d2565b600982019050919050565b5f610726826106b0565b9150610731826106fa565b9150819050919050565b5f819050919050565b5f60ff82169050919050565b5f819050919050565b5f61077361076e6107698461073b565b610750565b610744565b9050919050565b61078381610759565b82525050565b5f60208201905061079c5f83018461077a565b92915050565b7f736f6d6520737472696e670000000000000000000000000000000000000000005f82015250565b5f6107d6600b8361067e565b91506107e1826107a2565b600b82019050919050565b5f6107f6826107ca565b9150819050919050565b5f81905092915050565b50565b5f6108185f83610800565b91506108238261080a565b5f82019050919050565b5f6108378261080d565b9150819050919050565b7f5472616e73666572204661696c656400000000000000000000000000000000005f82015250565b5f610875600f836104a1565b915061088082610841565b602082019050919050565b5f6020820190508181035f8301526108a281610869565b9050919050565b5f80fd5b5f80fd5b7f4e487b71000000000000000000000000000000000000000000000000000000005f52604160045260245ffd5b6108e7826104d9565b810181811067ffffffffffffffff82111715610906576109056108b1565b5b80604052505050565b5f6109186105b3565b905061092482826108de565b919050565b5f67ffffffffffffffff821115610943576109426108b1565b5b61094c826104d9565b9050602081019050919050565b5f61096b61096684610929565b61090f565b905082815260208101848484011115610987576109866108ad565b5b6109928482856104b1565b509392505050565b5f82601f8301126109ae576109ad6108a9565b5b81516109be848260208601610959565b91505092915050565b5f602082840312156109dc576109db6105bc565b5b5f82015167ffffffffffffffff8111156109f9576109f86105c0565b5b610a058482850161099a565b91505092915050565b5f610a1a600b836104a1565b9150610a25826107a2565b602082019050919050565b7f69742773206269676765722100000000000000000000000000000000000000005f82015250565b5f610a64600c836104a1565b9150610a6f82610a30565b602082019050919050565b5f6040820190508181035f830152610a9181610a0e565b90508181036020830152610aa481610a58565b9050919050565b5f610ab7600c8361067e565b9150610ac282610a30565b600c82019050919050565b5f610ad7826107ca565b9150610ae282610aab565b9150819050919050565b5f8060408385031215610b0257610b016105bc565b5b5f83015167ffffffffffffffff811115610b1f57610b1e6105c0565b5b610b2b8582860161099a565b925050602083015167ffffffffffffffff811115610b4c57610b4b6105c0565b5b610b588582860161099a565b9150509250929050565b5f6020820190508181035f830152610b7981610a0e565b905091905056fea26469706673582212209fe99b812faf544314ab20d682738a146e5594abacc47bb6ef5aa02c29454a7a64736f6c63430008140033","linkReferences":{}},"methodIdentifiers":{"combineStrings()":"114a7610","decodeString()":"a77b0360","encodeNumber()":"15889d1a","encodeString()":"ed5df365","encodeStringBytes()":"406ec9f2","encodeStringPacked()":"2085f4b9","multiDecode()":"c452d79b","multiDecodePacked()":"929b807e","multiEncode()":"a6dc49b8","multiEncodePacked()":"b4748718","multiStringCastPacked()":"60ee46c3","withdraw(address)":"51cff8d9"},"id":1}