{"abi":[{"type":"function","name":"callTransferFunctionDirectly","inputs":[{"name":"someAddress","type":"address","internalType":"address"},{"name":"amount","type":"uint256","internalType":"uint256"}],"outputs":[{"name":"","type":"bytes4","internalType":"bytes4"},{"name":"","type":"bool","internalType":"bool"}],"stateMutability":"nonpayable"},{"type":"function","name":"callTransferFunctionDirectlyTwo","inputs":[{"name":"someAddress","type":"address","internalType":"address"},{"name":"amount","type":"uint256","internalType":"uint256"}],"outputs":[{"name":"","type":"bytes4","internalType":"bytes4"},{"name":"","type":"bool","internalType":"bool"}],"stateMutability":"nonpayable"},{"type":"function","name":"getCallData","inputs":[],"outputs":[{"name":"","type":"bytes","internalType":"bytes"}],"stateMutability":"view"},{"type":"function","name":"getDataToCallTransfer","inputs":[{"name":"someAddress","type":"address","internalType":"address"},{"name":"amount","type":"uint256","internalType":"uint256"}],"outputs":[{"name":"","type":"bytes","internalType":"bytes"}],"stateMutability":"pure"},{"type":"function","name":"getSelectorFour","inputs":[],"outputs":[{"name":"selector","type":"bytes4","internalType":"bytes4"}],"stateMutability":"pure"},{"type":"function","name":"getSelectorOne","inputs":[],"outputs":[{"name":"selector","type":"bytes4","internalType":"bytes4"}],"stateMutability":"pure"},{"type":"function","name":"getSelectorThree","inputs":[{"name":"functionCallData","type":"bytes","internalType":"bytes"}],"outputs":[{"name":"selector","type":"bytes4","internalType":"bytes4"}],"stateMutability":"pure"},{"type":"function","name":"getSelectorTwo","inputs":[],"outputs":[{"name":"selector","type":"bytes4","internalType":"bytes4"}],"stateMutability":"view"},{"type":"function","name":"getSignatureOne","inputs":[],"outputs":[{"name":"","type":"string","internalType":"string"}],"stateMutability":"pure"},{"type":"function","name":"s_amount","inputs":[],"outputs":[{"name":"","type":"uint256","internalType":"uint256"}],"stateMutability":"view"},{"type":"function","name":"s_someAddress","inputs":[],"outputs":[{"name":"","type":"address","internalType":"address"}],"stateMutability":"view"},{"type":"function","name":"transfer","inputs":[{"name":"someAddress","type":"address","internalType":"address"},{"name":"amount","type":"uint256","internalType":"uint256"}],"outputs":[],"stateMutability":"nonpayable"}],"bytecode":{"object":"0x608060405234801561000f575f80fd5b50610dd68061001d5f395ff3fe608060405234801561000f575f80fd5b50600436106100b2575f3560e01c8063a9059cbb1161006f578063a9059cbb1461018f578063aad229d5146101ab578063b20d9446146101c9578063c6e93bad146101fa578063ce6eb7ff14610218578063fbf6d51514610248576100b2565b80630bf9aa4c146100b657806325435a56146100d45780637c0c5f23146100f2578063852d52fa146101225780639a41d3ad14610140578063a5694e4a1461015e575b5f80fd5b6100be610266565b6040516100cb9190610865565b60405180910390f35b6100dc6102fe565b6040516100e991906108bf565b60405180910390f35b61010c6004803603810190610107919061096d565b61030c565b6040516101199190610865565b60405180910390f35b61012a61038e565b60405161013791906109fd565b60405180910390f35b6101486103cb565b60405161015591906108bf565b60405180910390f35b6101786004803603810190610173919061096d565b61040e565b604051610186929190610a37565b60405180910390f35b6101a960048036038101906101a4919061096d565b610509565b005b6101b3610553565b6040516101c09190610a6d565b60405180910390f35b6101e360048036038101906101de919061096d565b610576565b6040516101f1929190610a37565b60405180910390f35b610202610689565b60405161020f9190610a95565b60405180910390f35b610232600480360381019061022d9190610b0f565b61068f565b60405161023f91906108bf565b60405180910390f35b61025061069a565b60405161025d91906108bf565b60405180910390f35b606030607b60405160240161027c929190610ba8565b6040516020818303038152906040527fa9059cbb000000000000000000000000000000000000000000000000000000007bffffffffffffffffffffffffffffffffffffffffffffffffffffffff19166020820180517bffffffffffffffffffffffffffffffffffffffffffffffffffffffff8381831617835250505050905090565b5f63a9059cbb60e01b905090565b60606103166103cb565b8383604051602401610329929190610bcf565b604051602081830303815290604052907bffffffffffffffffffffffffffffffffffffffffffffffffffffffff19166020820180517bffffffffffffffffffffffffffffffffffffffffffffffffffffffff8381831617835250505050905092915050565b60606040518060400160405280601981526020017f7472616e7366657228616464726573732c75696e743235362900000000000000815250905090565b5f6040518060400160405280601981526020017f7472616e7366657228616464726573732c75696e74323536290000000000000081525080519060200120905090565b5f805f803073ffffffffffffffffffffffffffffffffffffffff166104316103cb565b8787604051602401610444929190610bcf565b604051602081830303815290604052907bffffffffffffffffffffffffffffffffffffffffffffffffffffffff19166020820180517bffffffffffffffffffffffffffffffffffffffffffffffffffffffff83818316178352505050506040516104ae9190610c30565b5f604051808303815f865af19150503d805f81146104e7576040519150601f19603f3d011682016040523d82523d5f602084013e6104ec565b606091505b5091509150806104fb90610c75565b829350935050509250929050565b815f806101000a81548173ffffffffffffffffffffffffffffffffffffffff021916908373ffffffffffffffffffffffffffffffffffffffff160217905550806001819055505050565b5f8054906101000a900473ffffffffffffffffffffffffffffffffffffffff1681565b5f805f803073ffffffffffffffffffffffffffffffffffffffff1686866040516024016105a4929190610bcf565b6040516020818303038152906040527fa9059cbb000000000000000000000000000000000000000000000000000000007bffffffffffffffffffffffffffffffffffffffffffffffffffffffff19166020820180517bffffffffffffffffffffffffffffffffffffffffffffffffffffffff838183161783525050505060405161062e9190610c30565b5f604051808303815f865af19150503d805f8114610667576040519150601f19603f3d011682016040523d82523d5f602084013e61066c565b606091505b50915091508061067b90610c75565b829350935050509250929050565b60015481565b5f8235905092915050565b5f8030607b6040516024016106b0929190610ba8565b6040516020818303038152906040527fa9059cbb000000000000000000000000000000000000000000000000000000007bffffffffffffffffffffffffffffffffffffffffffffffffffffffff19166020820180517bffffffffffffffffffffffffffffffffffffffffffffffffffffffff83818316178352505050509050805f8151811061074257610741610cdb565b5b602001015160f81c60f81b8160018151811061076157610760610cdb565b5b602001015160f81c60f81b826002815181106107805761077f610cdb565b5b602001015160f81c60f81b8360038151811061079f5761079e610cdb565b5b602001015160f81c60f81b6040516020016107bd9493929190610d53565b6040516020818303038152906040526107d590610c75565b91505090565b5f81519050919050565b5f82825260208201905092915050565b5f5b838110156108125780820151818401526020810190506107f7565b5f8484015250505050565b5f601f19601f8301169050919050565b5f610837826107db565b61084181856107e5565b93506108518185602086016107f5565b61085a8161081d565b840191505092915050565b5f6020820190508181035f83015261087d818461082d565b905092915050565b5f7fffffffff0000000000000000000000000000000000000000000000000000000082169050919050565b6108b981610885565b82525050565b5f6020820190506108d25f8301846108b0565b92915050565b5f80fd5b5f80fd5b5f73ffffffffffffffffffffffffffffffffffffffff82169050919050565b5f610909826108e0565b9050919050565b610919816108ff565b8114610923575f80fd5b50565b5f8135905061093481610910565b92915050565b5f819050919050565b61094c8161093a565b8114610956575f80fd5b50565b5f8135905061096781610943565b92915050565b5f8060408385031215610983576109826108d8565b5b5f61099085828601610926565b92505060206109a185828601610959565b9150509250929050565b5f81519050919050565b5f82825260208201905092915050565b5f6109cf826109ab565b6109d981856109b5565b93506109e98185602086016107f5565b6109f28161081d565b840191505092915050565b5f6020820190508181035f830152610a1581846109c5565b905092915050565b5f8115159050919050565b610a3181610a1d565b82525050565b5f604082019050610a4a5f8301856108b0565b610a576020830184610a28565b9392505050565b610a67816108ff565b82525050565b5f602082019050610a805f830184610a5e565b92915050565b610a8f8161093a565b82525050565b5f602082019050610aa85f830184610a86565b92915050565b5f80fd5b5f80fd5b5f80fd5b5f8083601f840112610acf57610ace610aae565b5b8235905067ffffffffffffffff811115610aec57610aeb610ab2565b5b602083019150836001820283011115610b0857610b07610ab6565b5b9250929050565b5f8060208385031215610b2557610b246108d8565b5b5f83013567ffffffffffffffff811115610b4257610b416108dc565b5b610b4e85828601610aba565b92509250509250929050565b5f819050919050565b5f60ff82169050919050565b5f819050919050565b5f610b92610b8d610b8884610b5a565b610b6f565b610b63565b9050919050565b610ba281610b78565b82525050565b5f604082019050610bbb5f830185610a5e565b610bc86020830184610b99565b9392505050565b5f604082019050610be25f830185610a5e565b610bef6020830184610a86565b9392505050565b5f81905092915050565b5f610c0a826107db565b610c148185610bf6565b9350610c248185602086016107f5565b80840191505092915050565b5f610c3b8284610c00565b915081905092915050565b5f819050602082019050919050565b5f610c608251610885565b80915050919050565b5f82821b905092915050565b5f610c7f826107db565b82610c8984610c46565b9050610c9481610c55565b92506004821015610cd457610ccf7fffffffff0000000000000000000000000000000000000000000000000000000083600403600802610c69565b831692505b5050919050565b7f4e487b71000000000000000000000000000000000000000000000000000000005f52603260045260245ffd5b5f7fff0000000000000000000000000000000000000000000000000000000000000082169050919050565b5f819050919050565b610d4d610d4882610d08565b610d33565b82525050565b5f610d5e8287610d3c565b600182019150610d6e8286610d3c565b600182019150610d7e8285610d3c565b600182019150610d8e8284610d3c565b6001820191508190509594505050505056fea2646970667358221220ded9c00c2104255626d1d81289cc0ab721af2c01878244a18118289665aa33c964736f6c63430008140033","linkReferences":{}},"methodIdentifiers":{"callTransferFunctionDirectly(address,uint256)":"a5694e4a","callTransferFunctionDirectlyTwo(address,uint256)":"b20d9446","getCallData()":"0bf9aa4c","getDataToCallTransfer(address,uint256)":"7c0c5f23","getSelectorFour()":"25435a56","getSelectorOne()":"9a41d3ad","getSelectorThree(bytes)":"ce6eb7ff","getSelectorTwo()":"fbf6d515","getSignatureOne()":"852d52fa","s_amount()":"c6e93bad","s_someAddress()":"aad229d5","transfer(address,uint256)":"a9059cbb"},"id":0}