{"abi":[{"type":"constructor","inputs":[{"name":"selectorsAndSignaturesAddress","type":"address","internalType":"address"}],"stateMutability":"nonpayable"},{"type":"function","name":"callFunctionDirectly","inputs":[{"name":"callData","type":"bytes","internalType":"bytes"}],"outputs":[{"name":"","type":"bytes4","internalType":"bytes4"},{"name":"","type":"bool","internalType":"bool"}],"stateMutability":"nonpayable"},{"type":"function","name":"callTransferFunctionDirectlyThree","inputs":[{"name":"someAddress","type":"address","internalType":"address"},{"name":"amount","type":"uint256","internalType":"uint256"}],"outputs":[{"name":"","type":"bytes4","internalType":"bytes4"},{"name":"","type":"bool","internalType":"bool"}],"stateMutability":"nonpayable"},{"type":"function","name":"s_selectorsAndSignaturesAddress","inputs":[],"outputs":[{"name":"","type":"address","internalType":"address"}],"stateMutability":"view"},{"type":"function","name":"staticCallFunctionDirectly","inputs":[],"outputs":[{"name":"","type":"bytes4","internalType":"bytes4"},{"name":"","type":"bool","internalType":"bool"}],"stateMutability":"view"}],"bytecode":{"object":"0x608060405234801561000f575f80fd5b506040516109c23803806109c2833981810160405281019061003191906100d4565b805f806101000a81548173ffffffffffffffffffffffffffffffffffffffff021916908373ffffffffffffffffffffffffffffffffffffffff160217905550506100ff565b5f80fd5b5f73ffffffffffffffffffffffffffffffffffffffff82169050919050565b5f6100a38261007a565b9050919050565b6100b381610099565b81146100bd575f80fd5b50565b5f815190506100ce816100aa565b92915050565b5f602082840312156100e9576100e8610076565b5b5f6100f6848285016100c0565b91505092915050565b6108b68061010c5f395ff3fe608060405234801561000f575f80fd5b506004361061004a575f3560e01c80631ce431b91461004e5780637690a4a21461006d57806378d331d61461009e578063e4ca8507146100bc575b5f80fd5b6100566100ed565b6040516100649291906104e9565b60405180910390f35b61008760048036038101906100829190610579565b61020e565b6040516100959291906104e9565b60405180910390f35b6100a6610340565b6040516100b39190610603565b60405180910390f35b6100d660048036038101906100d19190610679565b610363565b6040516100e49291906104e9565b60405180910390f35b5f805f805f8054906101000a900473ffffffffffffffffffffffffffffffffffffffff1673ffffffffffffffffffffffffffffffffffffffff166040516024016040516020818303038152906040527f9a41d3ad000000000000000000000000000000000000000000000000000000007bffffffffffffffffffffffffffffffffffffffffffffffffffffffff19166020820180517bffffffffffffffffffffffffffffffffffffffffffffffffffffffff83818316178352505050506040516101b79190610723565b5f60405180830381855afa9150503d805f81146101ef576040519150601f19603f3d011682016040523d82523d5f602084013e6101f4565b606091505b50915091508061020390610768565b829350935050509091565b5f805f805f8054906101000a900473ffffffffffffffffffffffffffffffffffffffff1673ffffffffffffffffffffffffffffffffffffffff16868660405160240161025b929190610828565b6040516020818303038152906040527fce6eb7ff000000000000000000000000000000000000000000000000000000007bffffffffffffffffffffffffffffffffffffffffffffffffffffffff19166020820180517bffffffffffffffffffffffffffffffffffffffffffffffffffffffff83818316178352505050506040516102e59190610723565b5f604051808303815f865af19150503d805f811461031e576040519150601f19603f3d011682016040523d82523d5f602084013e610323565b606091505b50915091508061033290610768565b829350935050509250929050565b5f8054906101000a900473ffffffffffffffffffffffffffffffffffffffff1681565b5f805f805f8054906101000a900473ffffffffffffffffffffffffffffffffffffffff1673ffffffffffffffffffffffffffffffffffffffff1686866040516024016103b0929190610859565b6040516020818303038152906040527fa9059cbb000000000000000000000000000000000000000000000000000000007bffffffffffffffffffffffffffffffffffffffffffffffffffffffff19166020820180517bffffffffffffffffffffffffffffffffffffffffffffffffffffffff838183161783525050505060405161043a9190610723565b5f604051808303815f865af19150503d805f8114610473576040519150601f19603f3d011682016040523d82523d5f602084013e610478565b606091505b50915091508061048790610768565b829350935050509250929050565b5f7fffffffff0000000000000000000000000000000000000000000000000000000082169050919050565b6104c981610495565b82525050565b5f8115159050919050565b6104e3816104cf565b82525050565b5f6040820190506104fc5f8301856104c0565b61050960208301846104da565b9392505050565b5f80fd5b5f80fd5b5f80fd5b5f80fd5b5f80fd5b5f8083601f84011261053957610538610518565b5b8235905067ffffffffffffffff8111156105565761055561051c565b5b60208301915083600182028301111561057257610571610520565b5b9250929050565b5f806020838503121561058f5761058e610510565b5b5f83013567ffffffffffffffff8111156105ac576105ab610514565b5b6105b885828601610524565b92509250509250929050565b5f73ffffffffffffffffffffffffffffffffffffffff82169050919050565b5f6105ed826105c4565b9050919050565b6105fd816105e3565b82525050565b5f6020820190506106165f8301846105f4565b92915050565b610625816105e3565b811461062f575f80fd5b50565b5f813590506106408161061c565b92915050565b5f819050919050565b61065881610646565b8114610662575f80fd5b50565b5f813590506106738161064f565b92915050565b5f806040838503121561068f5761068e610510565b5b5f61069c85828601610632565b92505060206106ad85828601610665565b9150509250929050565b5f81519050919050565b5f81905092915050565b5f5b838110156106e85780820151818401526020810190506106cd565b5f8484015250505050565b5f6106fd826106b7565b61070781856106c1565b93506107178185602086016106cb565b80840191505092915050565b5f61072e82846106f3565b915081905092915050565b5f819050602082019050919050565b5f6107538251610495565b80915050919050565b5f82821b905092915050565b5f610772826106b7565b8261077c84610739565b905061078781610748565b925060048210156107c7576107c27fffffffff000000000000000000000000000000000000000000000000000000008360040360080261075c565b831692505b5050919050565b5f82825260208201905092915050565b828183375f83830152505050565b5f601f19601f8301169050919050565b5f61080783856107ce565b93506108148385846107de565b61081d836107ec565b840190509392505050565b5f6020820190508181035f8301526108418184866107fc565b90509392505050565b61085381610646565b82525050565b5f60408201905061086c5f8301856105f4565b610879602083018461084a565b939250505056fea26469706673582212202e9bc30924d56fb411e8ec4e69b811d7e7ceb5d2b2c64fbd6e8115b4bda289c864736f6c63430008140033","linkReferences":{}},"methodIdentifiers":{"callFunctionDirectly(bytes)":"7690a4a2","callTransferFunctionDirectlyThree(address,uint256)":"e4ca8507","s_selectorsAndSignaturesAddress()":"78d331d6","staticCallFunctionDirectly()":"1ce431b9"},"id":0}