{"abi":[{"type":"constructor","inputs":[],"stateMutability":"nonpayable"},{"type":"function","name":"approve","inputs":[{"name":"to","type":"address","internalType":"address"},{"name":"tokenId","type":"uint256","internalType":"uint256"}],"outputs":[],"stateMutability":"nonpayable"},{"type":"function","name":"balanceOf","inputs":[{"name":"owner","type":"address","internalType":"address"}],"outputs":[{"name":"","type":"uint256","internalType":"uint256"}],"stateMutability":"view"},{"type":"function","name":"getApproved","inputs":[{"name":"tokenId","type":"uint256","internalType":"uint256"}],"outputs":[{"name":"","type":"address","internalType":"address"}],"stateMutability":"view"},{"type":"function","name":"getTokenCounter","inputs":[],"outputs":[{"name":"","type":"uint256","internalType":"uint256"}],"stateMutability":"view"},{"type":"function","name":"isApprovedForAll","inputs":[{"name":"owner","type":"address","internalType":"address"},{"name":"operator","type":"address","internalType":"address"}],"outputs":[{"name":"","type":"bool","internalType":"bool"}],"stateMutability":"view"},{"type":"function","name":"mintNft","inputs":[{"name":"tokenUri","type":"string","internalType":"string"}],"outputs":[],"stateMutability":"nonpayable"},{"type":"function","name":"name","inputs":[],"outputs":[{"name":"","type":"string","internalType":"string"}],"stateMutability":"view"},{"type":"function","name":"ownerOf","inputs":[{"name":"tokenId","type":"uint256","internalType":"uint256"}],"outputs":[{"name":"","type":"address","internalType":"address"}],"stateMutability":"view"},{"type":"function","name":"safeTransferFrom","inputs":[{"name":"from","type":"address","internalType":"address"},{"name":"to","type":"address","internalType":"address"},{"name":"tokenId","type":"uint256","internalType":"uint256"}],"outputs":[],"stateMutability":"nonpayable"},{"type":"function","name":"safeTransferFrom","inputs":[{"name":"from","type":"address","internalType":"address"},{"name":"to","type":"address","internalType":"address"},{"name":"tokenId","type":"uint256","internalType":"uint256"},{"name":"data","type":"bytes","internalType":"bytes"}],"outputs":[],"stateMutability":"nonpayable"},{"type":"function","name":"setApprovalForAll","inputs":[{"name":"operator","type":"address","internalType":"address"},{"name":"approved","type":"bool","internalType":"bool"}],"outputs":[],"stateMutability":"nonpayable"},{"type":"function","name":"supportsInterface","inputs":[{"name":"interfaceId","type":"bytes4","internalType":"bytes4"}],"outputs":[{"name":"","type":"bool","internalType":"bool"}],"stateMutability":"view"},{"type":"function","name":"symbol","inputs":[],"outputs":[{"name":"","type":"string","internalType":"string"}],"stateMutability":"view"},{"type":"function","name":"tokenURI","inputs":[{"name":"tokenId","type":"uint256","internalType":"uint256"}],"outputs":[{"name":"","type":"string","internalType":"string"}],"stateMutability":"view"},{"type":"function","name":"transferFrom","inputs":[{"name":"from","type":"address","internalType":"address"},{"name":"to","type":"address","internalType":"address"},{"name":"tokenId","type":"uint256","internalType":"uint256"}],"outputs":[],"stateMutability":"nonpayable"},{"type":"event","name":"Approval","inputs":[{"name":"owner","type":"address","indexed":true,"internalType":"address"},{"name":"approved","type":"address","indexed":true,"internalType":"address"},{"name":"tokenId","type":"uint256","indexed":true,"internalType":"uint256"}],"anonymous":false},{"type":"event","name":"ApprovalForAll","inputs":[{"name":"owner","type":"address","indexed":true,"internalType":"address"},{"name":"operator","type":"address","indexed":true,"internalType":"address"},{"name":"approved","type":"bool","indexed":false,"internalType":"bool"}],"anonymous":false},{"type":"event","name":"Transfer","inputs":[{"name":"from","type":"address","indexed":true,"internalType":"address"},{"name":"to","type":"address","indexed":true,"internalType":"address"},{"name":"tokenId","type":"uint256","indexed":true,"internalType":"uint256"}],"anonymous":false},{"type":"error","name":"BasicNft__TokenUriNotFound","inputs":[]},{"type":"error","name":"ERC721IncorrectOwner","inputs":[{"name":"sender","type":"address","internalType":"address"},{"name":"tokenId","type":"uint256","internalType":"uint256"},{"name":"owner","type":"address","internalType":"address"}]},{"type":"error","name":"ERC721InsufficientApproval","inputs":[{"name":"operator","type":"address","internalType":"address"},{"name":"tokenId","type":"uint256","internalType":"uint256"}]},{"type":"error","name":"ERC721InvalidApprover","inputs":[{"name":"approver","type":"address","internalType":"address"}]},{"type":"error","name":"ERC721InvalidOperator","inputs":[{"name":"operator","type":"address","internalType":"address"}]},{"type":"error","name":"ERC721InvalidOwner","inputs":[{"name":"owner","type":"address","internalType":"address"}]},{"type":"error","name":"ERC721InvalidReceiver","inputs":[{"name":"receiver","type":"address","internalType":"address"}]},{"type":"error","name":"ERC721InvalidSender","inputs":[{"name":"sender","type":"address","internalType":"address"}]},{"type":"error","name":"ERC721NonexistentToken","inputs":[{"name":"tokenId","type":"uint256","internalType":"uint256"}]}],"bytecode":{"object":"0x608060405234801561000f575f5ffd5b506040518060400160405280600581526020017f446f6769650000000000000000000000000000000000000000000000000000008152506040518060400160405280600381526020017f444f470000000000000000000000000000000000000000000000000000000000815250815f908161008a91906102e6565b50806001908161009a91906102e6565b5050505f6007819055506103b5565b5f81519050919050565b7f4e487b71000000000000000000000000000000000000000000000000000000005f52604160045260245ffd5b7f4e487b71000000000000000000000000000000000000000000000000000000005f52602260045260245ffd5b5f600282049050600182168061012457607f821691505b602082108103610137576101366100e0565b5b50919050565b5f819050815f5260205f209050919050565b5f6020601f8301049050919050565b5f82821b905092915050565b5f600883026101997fffffffffffffffffffffffffffffffffffffffffffffffffffffffffffffffff8261015e565b6101a3868361015e565b95508019841693508086168417925050509392505050565b5f819050919050565b5f819050919050565b5f6101e76101e26101dd846101bb565b6101c4565b6101bb565b9050919050565b5f819050919050565b610200836101cd565b61021461020c826101ee565b84845461016a565b825550505050565b5f5f905090565b61022b61021c565b6102368184846101f7565b505050565b5b818110156102595761024e5f82610223565b60018101905061023c565b5050565b601f82111561029e5761026f8161013d565b6102788461014f565b81016020851015610287578190505b61029b6102938561014f565b83018261023b565b50505b505050565b5f82821c905092915050565b5f6102be5f19846008026102a3565b1980831691505092915050565b5f6102d683836102af565b9150826002028217905092915050565b6102ef826100a9565b67ffffffffffffffff811115610308576103076100b3565b5b610312825461010d565b61031d82828561025d565b5f60209050601f83116001811461034e575f841561033c578287015190505b61034685826102cb565b8655506103ad565b601f19841661035c8661013d565b5f5b828110156103835784890151825560018201915060208501945060208101905061035e565b868310156103a0578489015161039c601f8916826102af565b8355505b6001600288020188555050505b505050505050565b611fb8806103c25f395ff3fe608060405234801561000f575f5ffd5b50600436106100f3575f3560e01c80636e02007d11610095578063b88d4fde11610064578063b88d4fde14610281578063c87b56dd1461029d578063da86f4a9146102cd578063e985e9c5146102e9576100f3565b80636e02007d146101f957806370a082311461021757806395d89b4114610247578063a22cb46514610265576100f3565b8063095ea7b3116100d1578063095ea7b31461017557806323b872dd1461019157806342842e0e146101ad5780636352211e146101c9576100f3565b806301ffc9a7146100f757806306fdde0314610127578063081812fc14610145575b5f5ffd5b610111600480360381019061010c9190611539565b610319565b60405161011e919061157e565b60405180910390f35b61012f6103fa565b60405161013c9190611607565b60405180910390f35b61015f600480360381019061015a919061165a565b610489565b60405161016c91906116c4565b60405180910390f35b61018f600480360381019061018a9190611707565b6104a4565b005b6101ab60048036038101906101a69190611745565b6104ba565b005b6101c760048036038101906101c29190611745565b6105b9565b005b6101e360048036038101906101de919061165a565b6105d8565b6040516101f091906116c4565b60405180910390f35b6102016105e9565b60405161020e91906117a4565b60405180910390f35b610231600480360381019061022c91906117bd565b6105f2565b60405161023e91906117a4565b60405180910390f35b61024f6106a8565b60405161025c9190611607565b60405180910390f35b61027f600480360381019061027a9190611812565b610738565b005b61029b6004803603810190610296919061197c565b61074e565b005b6102b760048036038101906102b2919061165a565b610773565b6040516102c49190611607565b60405180910390f35b6102e760048036038101906102e29190611a9a565b610881565b005b61030360048036038101906102fe9190611ae1565b6108c6565b604051610310919061157e565b60405180910390f35b5f7f80ac58cd000000000000000000000000000000000000000000000000000000007bffffffffffffffffffffffffffffffffffffffffffffffffffffffff1916827bffffffffffffffffffffffffffffffffffffffffffffffffffffffff191614806103e357507f5b5e139f000000000000000000000000000000000000000000000000000000007bffffffffffffffffffffffffffffffffffffffffffffffffffffffff1916827bffffffffffffffffffffffffffffffffffffffffffffffffffffffff1916145b806103f357506103f282610954565b5b9050919050565b60605f805461040890611b4c565b80601f016020809104026020016040519081016040528092919081815260200182805461043490611b4c565b801561047f5780601f106104565761010080835404028352916020019161047f565b820191905f5260205f20905b81548152906001019060200180831161046257829003601f168201915b5050505050905090565b5f610493826109bd565b5061049d82610a43565b9050919050565b6104b682826104b1610a7c565b610a83565b5050565b5f73ffffffffffffffffffffffffffffffffffffffff168273ffffffffffffffffffffffffffffffffffffffff160361052a575f6040517f64a0ae9200000000000000000000000000000000000000000000000000000000815260040161052191906116c4565b60405180910390fd5b5f61053d8383610538610a7c565b610a95565b90508373ffffffffffffffffffffffffffffffffffffffff168173ffffffffffffffffffffffffffffffffffffffff16146105b3578382826040517f64283d7b0000000000000000000000000000000000000000000000000000000081526004016105aa93929190611b7c565b60405180910390fd5b50505050565b6105d383838360405180602001604052805f81525061074e565b505050565b5f6105e2826109bd565b9050919050565b5f600754905090565b5f5f73ffffffffffffffffffffffffffffffffffffffff168273ffffffffffffffffffffffffffffffffffffffff1603610663575f6040517f89c62b6400000000000000000000000000000000000000000000000000000000815260040161065a91906116c4565b60405180910390fd5b60035f8373ffffffffffffffffffffffffffffffffffffffff1673ffffffffffffffffffffffffffffffffffffffff1681526020019081526020015f20549050919050565b6060600180546106b790611b4c565b80601f01602080910402602001604051908101604052809291908181526020018280546106e390611b4c565b801561072e5780601f106107055761010080835404028352916020019161072e565b820191905f5260205f20905b81548152906001019060200180831161071157829003601f168201915b5050505050905090565b61074a610743610a7c565b8383610ca0565b5050565b6107598484846104ba565b61076d610764610a7c565b85858585610e79565b50505050565b60605f73ffffffffffffffffffffffffffffffffffffffff16610795836105d8565b73ffffffffffffffffffffffffffffffffffffffff16036107e2576040517f7598996f00000000000000000000000000000000000000000000000000000000815260040160405180910390fd5b60065f8381526020019081526020015f2080546107fe90611b4c565b80601f016020809104026020016040519081016040528092919081815260200182805461082a90611b4c565b80156108755780601f1061084c57610100808354040283529160200191610875565b820191905f5260205f20905b81548152906001019060200180831161085857829003601f168201915b50505050509050919050565b8060065f60075481526020019081526020015f2090816108a19190611d51565b506108ae33600754611025565b60016007546108bd9190611e4d565b60078190555050565b5f60055f8473ffffffffffffffffffffffffffffffffffffffff1673ffffffffffffffffffffffffffffffffffffffff1681526020019081526020015f205f8373ffffffffffffffffffffffffffffffffffffffff1673ffffffffffffffffffffffffffffffffffffffff1681526020019081526020015f205f9054906101000a900460ff16905092915050565b5f7f01ffc9a7000000000000000000000000000000000000000000000000000000007bffffffffffffffffffffffffffffffffffffffffffffffffffffffff1916827bffffffffffffffffffffffffffffffffffffffffffffffffffffffff1916149050919050565b5f5f6109c883611042565b90505f73ffffffffffffffffffffffffffffffffffffffff168173ffffffffffffffffffffffffffffffffffffffff1603610a3a57826040517f7e273289000000000000000000000000000000000000000000000000000000008152600401610a3191906117a4565b60405180910390fd5b80915050919050565b5f60045f8381526020019081526020015f205f9054906101000a900473ffffffffffffffffffffffffffffffffffffffff169050919050565b5f33905090565b610a90838383600161107b565b505050565b5f5f610aa084611042565b90505f73ffffffffffffffffffffffffffffffffffffffff168373ffffffffffffffffffffffffffffffffffffffff1614610ae157610ae081848661123a565b5b5f73ffffffffffffffffffffffffffffffffffffffff168173ffffffffffffffffffffffffffffffffffffffff1614610b6c57610b205f855f5f61107b565b600160035f8373ffffffffffffffffffffffffffffffffffffffff1673ffffffffffffffffffffffffffffffffffffffff1681526020019081526020015f205f82825403925050819055505b5f73ffffffffffffffffffffffffffffffffffffffff168573ffffffffffffffffffffffffffffffffffffffff1614610beb57600160035f8773ffffffffffffffffffffffffffffffffffffffff1673ffffffffffffffffffffffffffffffffffffffff1681526020019081526020015f205f82825401925050819055505b8460025f8681526020019081526020015f205f6101000a81548173ffffffffffffffffffffffffffffffffffffffff021916908373ffffffffffffffffffffffffffffffffffffffff160217905550838573ffffffffffffffffffffffffffffffffffffffff168273ffffffffffffffffffffffffffffffffffffffff167fddf252ad1be2c89b69c2b068fc378daa952ba7f163c4a11628f55a4df523b3ef60405160405180910390a4809150509392505050565b5f73ffffffffffffffffffffffffffffffffffffffff168373ffffffffffffffffffffffffffffffffffffffff1603610d10575f6040517fa9fbf51f000000000000000000000000000000000000000000000000000000008152600401610d0791906116c4565b60405180910390fd5b5f73ffffffffffffffffffffffffffffffffffffffff168273ffffffffffffffffffffffffffffffffffffffff1603610d8057816040517f5b08ba18000000000000000000000000000000000000000000000000000000008152600401610d7791906116c4565b60405180910390fd5b8060055f8573ffffffffffffffffffffffffffffffffffffffff1673ffffffffffffffffffffffffffffffffffffffff1681526020019081526020015f205f8473ffffffffffffffffffffffffffffffffffffffff1673ffffffffffffffffffffffffffffffffffffffff1681526020019081526020015f205f6101000a81548160ff0219169083151502179055508173ffffffffffffffffffffffffffffffffffffffff168373ffffffffffffffffffffffffffffffffffffffff167f17307eab39ab6107e8899845ad3d59bd9653f200f220920489ca2b5937696c3183604051610e6c919061157e565b60405180910390a3505050565b5f8373ffffffffffffffffffffffffffffffffffffffff163b111561101e578273ffffffffffffffffffffffffffffffffffffffff1663150b7a02868685856040518563ffffffff1660e01b8152600401610ed79493929190611ed2565b6020604051808303815f875af1925050508015610f1257506040513d601f19601f82011682018060405250810190610f0f9190611f30565b60015b610f93573d805f8114610f40576040519150601f19603f3d011682016040523d82523d5f602084013e610f45565b606091505b505f815103610f8b57836040517f64a0ae92000000000000000000000000000000000000000000000000000000008152600401610f8291906116c4565b60405180910390fd5b805160208201fd5b63150b7a0260e01b7bffffffffffffffffffffffffffffffffffffffffffffffffffffffff1916817bffffffffffffffffffffffffffffffffffffffffffffffffffffffff19161461101c57836040517f64a0ae9200000000000000000000000000000000000000000000000000000000815260040161101391906116c4565b60405180910390fd5b505b5050505050565b61103e828260405180602001604052805f8152506112fd565b5050565b5f60025f8381526020019081526020015f205f9054906101000a900473ffffffffffffffffffffffffffffffffffffffff169050919050565b80806110b357505f73ffffffffffffffffffffffffffffffffffffffff168273ffffffffffffffffffffffffffffffffffffffff1614155b156111e5575f6110c2846109bd565b90505f73ffffffffffffffffffffffffffffffffffffffff168373ffffffffffffffffffffffffffffffffffffffff161415801561112c57508273ffffffffffffffffffffffffffffffffffffffff168173ffffffffffffffffffffffffffffffffffffffff1614155b801561113f575061113d81846108c6565b155b1561118157826040517fa9fbf51f00000000000000000000000000000000000000000000000000000000815260040161117891906116c4565b60405180910390fd5b81156111e357838573ffffffffffffffffffffffffffffffffffffffff168273ffffffffffffffffffffffffffffffffffffffff167f8c5be1e5ebec7d5bd14f71427d1e84f3dd0314c0f7b2291e5b200ac8c7c3b92560405160405180910390a45b505b8360045f8581526020019081526020015f205f6101000a81548173ffffffffffffffffffffffffffffffffffffffff021916908373ffffffffffffffffffffffffffffffffffffffff16021790555050505050565b611245838383611320565b6112f8575f73ffffffffffffffffffffffffffffffffffffffff168373ffffffffffffffffffffffffffffffffffffffff16036112b957806040517f7e2732890000000000000000000000000000000000000000000000000000000081526004016112b091906117a4565b60405180910390fd5b81816040517f177e802f0000000000000000000000000000000000000000000000000000000081526004016112ef929190611f5b565b60405180910390fd5b505050565b61130783836113e0565b61131b611312610a7c565b5f858585610e79565b505050565b5f5f73ffffffffffffffffffffffffffffffffffffffff168373ffffffffffffffffffffffffffffffffffffffff16141580156113d757508273ffffffffffffffffffffffffffffffffffffffff168473ffffffffffffffffffffffffffffffffffffffff161480611398575061139784846108c6565b5b806113d657508273ffffffffffffffffffffffffffffffffffffffff166113be83610a43565b73ffffffffffffffffffffffffffffffffffffffff16145b5b90509392505050565b5f73ffffffffffffffffffffffffffffffffffffffff168273ffffffffffffffffffffffffffffffffffffffff1603611450575f6040517f64a0ae9200000000000000000000000000000000000000000000000000000000815260040161144791906116c4565b60405180910390fd5b5f61145c83835f610a95565b90505f73ffffffffffffffffffffffffffffffffffffffff168173ffffffffffffffffffffffffffffffffffffffff16146114ce575f6040517f73c6ac6e0000000000000000000000000000000000000000000000000000000081526004016114c591906116c4565b60405180910390fd5b505050565b5f604051905090565b5f5ffd5b5f5ffd5b5f7fffffffff0000000000000000000000000000000000000000000000000000000082169050919050565b611518816114e4565b8114611522575f5ffd5b50565b5f813590506115338161150f565b92915050565b5f6020828403121561154e5761154d6114dc565b5b5f61155b84828501611525565b91505092915050565b5f8115159050919050565b61157881611564565b82525050565b5f6020820190506115915f83018461156f565b92915050565b5f81519050919050565b5f82825260208201905092915050565b8281835e5f83830152505050565b5f601f19601f8301169050919050565b5f6115d982611597565b6115e381856115a1565b93506115f38185602086016115b1565b6115fc816115bf565b840191505092915050565b5f6020820190508181035f83015261161f81846115cf565b905092915050565b5f819050919050565b61163981611627565b8114611643575f5ffd5b50565b5f8135905061165481611630565b92915050565b5f6020828403121561166f5761166e6114dc565b5b5f61167c84828501611646565b91505092915050565b5f73ffffffffffffffffffffffffffffffffffffffff82169050919050565b5f6116ae82611685565b9050919050565b6116be816116a4565b82525050565b5f6020820190506116d75f8301846116b5565b92915050565b6116e6816116a4565b81146116f0575f5ffd5b50565b5f81359050611701816116dd565b92915050565b5f5f6040838503121561171d5761171c6114dc565b5b5f61172a858286016116f3565b925050602061173b85828601611646565b9150509250929050565b5f5f5f6060848603121561175c5761175b6114dc565b5b5f611769868287016116f3565b935050602061177a868287016116f3565b925050604061178b86828701611646565b9150509250925092565b61179e81611627565b82525050565b5f6020820190506117b75f830184611795565b92915050565b5f602082840312156117d2576117d16114dc565b5b5f6117df848285016116f3565b91505092915050565b6117f181611564565b81146117fb575f5ffd5b50565b5f8135905061180c816117e8565b92915050565b5f5f60408385031215611828576118276114dc565b5b5f611835858286016116f3565b9250506020611846858286016117fe565b9150509250929050565b5f5ffd5b5f5ffd5b7f4e487b71000000000000000000000000000000000000000000000000000000005f52604160045260245ffd5b61188e826115bf565b810181811067ffffffffffffffff821117156118ad576118ac611858565b5b80604052505050565b5f6118bf6114d3565b90506118cb8282611885565b919050565b5f67ffffffffffffffff8211156118ea576118e9611858565b5b6118f3826115bf565b9050602081019050919050565b828183375f83830152505050565b5f61192061191b846118d0565b6118b6565b90508281526020810184848401111561193c5761193b611854565b5b611947848285611900565b509392505050565b5f82601f83011261196357611962611850565b5b813561197384826020860161190e565b91505092915050565b5f5f5f5f60808587031215611994576119936114dc565b5b5f6119a1878288016116f3565b94505060206119b2878288016116f3565b93505060406119c387828801611646565b925050606085013567ffffffffffffffff8111156119e4576119e36114e0565b5b6119f08782880161194f565b91505092959194509250565b5f67ffffffffffffffff821115611a1657611a15611858565b5b611a1f826115bf565b9050602081019050919050565b5f611a3e611a39846119fc565b6118b6565b905082815260208101848484011115611a5a57611a59611854565b5b611a65848285611900565b509392505050565b5f82601f830112611a8157611a80611850565b5b8135611a91848260208601611a2c565b91505092915050565b5f60208284031215611aaf57611aae6114dc565b5b5f82013567ffffffffffffffff811115611acc57611acb6114e0565b5b611ad884828501611a6d565b91505092915050565b5f5f60408385031215611af757611af66114dc565b5b5f611b04858286016116f3565b9250506020611b15858286016116f3565b9150509250929050565b7f4e487b71000000000000000000000000000000000000000000000000000000005f52602260045260245ffd5b5f6002820490506001821680611b6357607f821691505b602082108103611b7657611b75611b1f565b5b50919050565b5f606082019050611b8f5f8301866116b5565b611b9c6020830185611795565b611ba960408301846116b5565b949350505050565b5f819050815f5260205f209050919050565b5f6020601f8301049050919050565b5f82821b905092915050565b5f60088302611c0d7fffffffffffffffffffffffffffffffffffffffffffffffffffffffffffffffff82611bd2565b611c178683611bd2565b95508019841693508086168417925050509392505050565b5f819050919050565b5f611c52611c4d611c4884611627565b611c2f565b611627565b9050919050565b5f819050919050565b611c6b83611c38565b611c7f611c7782611c59565b848454611bde565b825550505050565b5f5f905090565b611c96611c87565b611ca1818484611c62565b505050565b5b81811015611cc457611cb95f82611c8e565b600181019050611ca7565b5050565b601f821115611d0957611cda81611bb1565b611ce384611bc3565b81016020851015611cf2578190505b611d06611cfe85611bc3565b830182611ca6565b50505b505050565b5f82821c905092915050565b5f611d295f1984600802611d0e565b1980831691505092915050565b5f611d418383611d1a565b9150826002028217905092915050565b611d5a82611597565b67ffffffffffffffff811115611d7357611d72611858565b5b611d7d8254611b4c565b611d88828285611cc8565b5f60209050601f831160018114611db9575f8415611da7578287015190505b611db18582611d36565b865550611e18565b601f198416611dc786611bb1565b5f5b82811015611dee57848901518255600182019150602085019450602081019050611dc9565b86831015611e0b5784890151611e07601f891682611d1a565b8355505b6001600288020188555050505b505050505050565b7f4e487b71000000000000000000000000000000000000000000000000000000005f52601160045260245ffd5b5f611e5782611627565b9150611e6283611627565b9250828201905080821115611e7a57611e79611e20565b5b92915050565b5f81519050919050565b5f82825260208201905092915050565b5f611ea482611e80565b611eae8185611e8a565b9350611ebe8185602086016115b1565b611ec7816115bf565b840191505092915050565b5f608082019050611ee55f8301876116b5565b611ef260208301866116b5565b611eff6040830185611795565b8181036060830152611f118184611e9a565b905095945050505050565b5f81519050611f2a8161150f565b92915050565b5f60208284031215611f4557611f446114dc565b5b5f611f5284828501611f1c565b91505092915050565b5f604082019050611f6e5f8301856116b5565b611f7b6020830184611795565b939250505056fea2646970667358221220b9ee80214ceab43995c7b6088d031e7d54653614783e1601abbf8dfa6fab294564736f6c634300081e0033","linkReferences":{}},"methodIdentifiers":{"approve(address,uint256)":"095ea7b3","balanceOf(address)":"70a08231","getApproved(uint256)":"081812fc","getTokenCounter()":"6e02007d","isApprovedForAll(address,address)":"e985e9c5","mintNft(string)":"da86f4a9","name()":"06fdde03","ownerOf(uint256)":"6352211e","safeTransferFrom(address,address,uint256)":"42842e0e","safeTransferFrom(address,address,uint256,bytes)":"b88d4fde","setApprovalForAll(address,bool)":"a22cb465","supportsInterface(bytes4)":"01ffc9a7","symbol()":"95d89b41","tokenURI(uint256)":"c87b56dd","transferFrom(address,address,uint256)":"23b872dd"},"id":30}